:100000000C9434000C9449000C9449000C94490061
:100010000C9449000C9449000C9449000C9449003C
:100020000C9449000C9449000C9449000C9449002C
:100030000C9449000C9449000C9449000C9449001C
:100040000C9449000C9449000C9449000C9449000C
:100050000C9449000C9449000C9449000C944900FC
:100060000C9449000C94490011241FBECFEFD8E036
:10007000DEBFCDBF11E0A0E0B1E0EEE2F3E002C0F0
:1000800005900D92A233B107D9F70E941F010C947D
:1000900095010C9400001BB887FD589A86FD599A6B
:1000A00085FD5A9A84FD5B9A83FD5C9A82FD5D9A78
:1000B00081FD5E9A80FD5F9A289A85E08A95F1F726
:1000C0000000289885E08A95F1F700000895299AA4
:1000D00028980C944B00CF93DF93EC0189918823EF
:1000E00049F00E9467008FE391E00197F1F700C0AB
:1000F0000000F4CFDF91CF910895299828980C94AF
:100100004B008FE59AEE0197F1F700C0000088E3FD
:100110000E947D008FE391E00197F1F700C000009D
:100120008CE00E947D008FE391E00197F1F700C021
:10013000000081E00E947D008FE39FE10197F1F7CD
:1001400000C0000008958C3221E0920710F4C2969E
:10015000089580E090E008950F931F93CF93DF936D
:1001600000D01F92CDB7DEB7FE0131969E012C5F05
:100170003F4F0AE010E0B8010E948101805D819349
:10018000CB01E217F307B9F78AE80E947D008FE3FD
:1001900091E00197F1F700C000008B810E94670099
:1001A0008FE391E00197F1F700C000008A810E947F
:1001B00067008FE391E00197F1F700C000008981AB
:1001C0000E9467008FE391E00197F1F700C0000003
:1001D0000F900F900F90DF91CF911F910F91089585
:1001E000CF93DF93CDB7DEB761970FB6F894DEBF3C
:1001F0000FBECDBF81E1E2E0F1E0DE01119601909A
:100200000D928A95E1F780EC0E947D008FE391E0EA
:100210000197F1F700C00000CE0101960E946B002B
:100220008FE391E00197F1F700C0000061960FB6EF
:10023000F894DEBF0FBECDBFDF91CF910895CF936D
:10024000DF93CDB7DEB76F970FB6F894DEBF0FBE62
:10025000CDBF8FEF8AB9209A219A87B18F7C87B959
:100260000E9481008EE0E3E1F1E0DE015296019010
:100270000D928A95E1F781E1E1E2F1E0DE0111966C
:1002800001900D928A95E1F7CE0142960E946B0093
:1002900080EC0E947D008FE391E00197F1F700C0B0
:1002A0000000CE0101960E946B0010E0359B03C058
:1002B0000E94F0000DC080EC0E947D008FE391E071
:1002C0000197F1F700C00000CE0101960E946B007B
:1002D000349B14C0111112C0809100019091010152
:1002E0008C3221E0920710F4C29602C080E090E0C8
:1002F00090930101809300010E94AC0016B110712F
:10030000D5CFAA1BBB1B51E107C0AA1FBB1FA61755
:10031000B70710F0A61BB70B881F991F5A95A9F7AE
:0E03200080959095BC01CD010895F894FFCF13
:10032E00640053656E64696E672050756C73652E3C
:10033E002E2E004672657175656E63793A313030D6
:10034E0000526561647920746F2073656E642E2E81
:02035E002E006F
:00000001FF
